:10000000C8220020D11100003F0C00002F0D00007D
:10001000330D00002B0E0000F30E00000000000066
:10002000000000000000000000000000711100004E
:10003000B311000000000000C3110000F111000026
:10004000CF0F0000F3110000F1050000F5110000D2
:10005000F7110000F9110000AF060000FB110000CD
:10006000FD110000FF11000001120000031200004A
:100070000512000007120000091200000B12000018
:100080000D1200000F1200001112000013120000E8
:10009000371000003F100000471000004F10000014
:1000A000571000005F10000015120000171200002A
:1000B000191200001B1200000000000000000000E8
:1000C0001D1200001F120000211200002312000068
:1000D0002512000027120000291200002B12000038
:1000E000010600002D1200002F1200000000000089
:1000F0000000000031120000000000003312000078
:1001000000000000000000000000000000000000EF
:1001100000000000000000000000000000000000DF
:1001200000000000000000000000000000000000CF
:1001300000000000000000000000000000000000BF
:1001400000000000000000000000000000000000AF
:10015000000000000000000000000000000000009F
:10016000000000000000000000000000000000008F
:10017000000000000000000000000000000000007F
:10018000000000000000000000000000000000006F
:10019000000000000000000000000000000000005F
:1001A000000000000000000000000000000000004F
:1001B000000000000000000000000000000000003F
:1001C000000000000000000000000000000000002F
:1001D000000000000000000000000000000000001F
:1001E000000000000000000000000000000000000F
:1001F00000000000000000000000000000000000FF
:1002000008E010E0D0F80403084018BF0120C0B295
:10021000704700BF81B000220A5008580090009833
:1002200001B0704700BF085800B10120C0B270474C
:1002300038B50D4604464FF48E71FFF7E1FFA8680C
:10024000A98A085CA98A491CA982C4F81C0531BD89
:10025000F8B50446DFF8C003217A00EB411500F041
:100260001FF800F0C5F82168A87DAB6801F2445280
:1002700000261360506001208860686870B92068AB
:100280004FF49071FFF7CEFF074600F0ADF850EA4B
:100290000701F4D000B10F260020A8753046F2BD4A
:1002A00020684FF49071B4E72DE9F0410446DFF87F
:1002B0006853207A05EB40170E46387F00281EBF92
:1002C00006F06040B0F1005F1020904641D120461A
:1002D00000F049F808B111203BE087F81680BE60B5
:1002E000B882207A05EB4015287F18B12046BDE87A
:1002F000F041ADE700F033F820680121816000266D
:100300002946FFF795FF686810BB0EE000F023F860
:1003100018B9A88AB0F5807FF8D1A88AB0F5807F97
:1003200003D020682946FFF783FFA88AA97D884269
:10033000ECD3A88AB0F5807F08BF0F2606D000F066
:100340000AF80028FBD021680120C8600020A875A9
:100350003046BDE8F08120684FF48E7151E7206887
:100360004FF48E714CE7007ADFF8AC1201EB4010CD
:10037000807D00B10120704738B50D460446E87D08
:1003800000284FF48471204604D1FFF739FFD4F8D8
:10039000180531BDFFF734FF687ED4F81815EA68F8
:1003A0008154687E401C687631BD00B585B0034637
:1003B00001208DF808108DF80000019200A819683E
:1003C0005A680EE000B585B0024600208DF80000A6
:1003D0008DF80810906801900020907500A81168B1
:1003E0005268904705B000BD20684FF4AC7119E722
:1003F00020684FF4AC71FFF70CBF7FB50D46044683
:100400004FF40071FFF7FEFE4FF4017620B34FF476
:10041000927100F07BF8F8B14FF492712046FFF72B
:10042000EFFEC4F80863A87E08B9012060600220CE
:100430008DF80000D4F88004C4F880040390E87DAF
:100440008DF80800E86801900020E8752876296892
:100450006A6800A8904729E004212046FFF7D2FEF1
:1004600020B34FF4847100F051F8F8B129462046CA
:10047000FFF782FFE87D697E884217D1287E40B170
:10048000EA68697EE8752869E86000202876687661
:1004900009E0A87E08B901206060C4F80863002064
:1004A000EA68E875697E2846FFF77FFF4FF48E7192
:1004B00000F02CF890B1A88AA97D884204D2294680
:1004C0002046FFF7B5FE09E04FF48E712046FFF796
:1004D00097FEA97D11B12846FFF774FF4FF4A27172
:1004E00000F014F888B14FF4A2712046FFF788FE9F
:1004F000A87E08B101202060E87D30B10020EA68C4
:10050000E8752846697EFFF750FF7FBD2046FFF75C
:1005100078BE7FB50C464FF492710546FFF782FE18
:1005200005F23C56C0B14FF4927100F05EF8022023
:100530008DF80000D5F88004C5F880040390306879
:100540008DF80800E06801900020E07520762168B1
:10055000626800A8904722E04FF488712846FFF7B0
:1005600061FEE0B14FF4887100F03FF83168E07D42
:10057000C9B2814213D1E268207E60B1D5F8000291
:1005800020F02000C5F80002207EE0752069E060C0
:100590000020207600E0E0752046FFF706FF4FF4CC
:1005A000A2712846FFF73EFE68B14FF4A27100F039
:1005B0001CF8E07D38B10020E07520463168E26823
:1005C000C9B2FFF7F2FE4FF490712846FFF72AFEFA
:1005D00050B14FF4907100F008F8A07D20B131695E
:1005E000C9B22046FFF7EEFE7FBD2846FFF711BED9
:1005F00009490A480A7F002A18BFFFF78ABFFCE6AC
:100600000549074891F83C20002A1CBF2031FFF71C
:1006100080BF2031F1E60000B00000200020004043
:1006200000800240DFF81C120858012818BF002083
:10063000704700F1804000F5C040002181B00160AA
:1006400000680090009801B07047202832BFDFF8A2
:10065000FC2100F01F00DFF8F82152F8203023F4CD
:10066000403342F8203052F8203043EA01411BE089
:100670007CB50FF2EC1460CC00AB60C3034607E01E
:1006800000AC54F82340D4F8104542F8044B5B1CEE
:100690000C18A342F4D373BD012200F00703C00875
:1006A0009A40405C1040704742F8201070472DE996
:1006B000F04F89B002A800210A4606C000264FF478
:1006C0008079012708250FFA89F0FFF7ABFF002892
:1006D0001EBF61480068384204D00FFA89F0FFF766
:1006E000A8FF3E437F006D1E09F10409EBD14FF4D2
:1006F000BE70FFF797FF50B14FF4BE70FFF799FF40
:1007000002AA02210020FFF7B3FF46F000463006A0
:10071000DFF8409115D00127504C37420DD054F8E6
:10072000250054F8251059F82520130005D0090C90
:1007300001F00301C0F3052090477F006D1C082DD8
:10074000EBD3002E7BD506A80021002206C04FF077
:10075000FF300090019006AE06E0049A02924160DC
:10076000069A7068009201900027002505EB0900A9
:1007700090F96000C4B210F1010F24F0C0084BD012
:1007800000A94046FFF788FF002845D0A00900F0E7
:10079000030408EB090090F9300059F820A0BAF1E1
:1007A000000F02D1032C37D101E0032C08D14FEA0E
:1007B000D8000122815D08F007039A40114381555A
:1007C0004046202832BF4FF0A04100F01F001E49D4
:1007D00001EB800002A9D0F80007000C00F0030B29
:1007E0004046FFF759FF18B1BBF1020F14D102E0E8
:1007F000BBF1030F10D1032C08D1BBF1020F0CBFCA
:10080000032102214046FFF720FF7F1CBAF1000FB1
:1008100002D021464046D0476D1C042DA6D3FFB21E
:100820006FB104AA02210020FFF722FF049A029B65
:10083000059902A89A4204BF426891428DD109B03D
:10084000BDE8F08F0060004000030050000700503A
:10085000000A0050040000200463004010650040BE
:10086000000000500003005010B5044600F0BAF834
:1008700000F007F800210171204600F00FF8204633
:1008800010BD4C4820602D2104F13C0001702E2148
:100890004170022181702F21C1707047022900DB55
:1008A000704710B500F11403383044799C60047926
:1008B000DC60C4791C6184795C6100249C61047AE9
:1008C0001C7700245C774FF0EB741C6207240470E3
:1008D0000124447001290CBF374838481860197149
:1008E00010BD7047B1F5966F2DD0B1F5166F2DD0B4
:1008F000B1F5965F2DD0B1F5165F2CD0B1F5615FE3
:100900002BD0B1F5964F2AD0B1F5E14F29D0B1F5F2
:10091000164F28D0B1F5614F28D0B1F5963F28D0B9
:10092000B1F5E13F27D0B1F5613F27D0244A91428C
:1009300027D0B1F5E12F27D0B1F5612F27D0214A7B
:10094000914227D029E04FF49E2125E04FF41D214C
:1009500022E01D4920E01D491EE01D491CE01D4903
:100960001AE01D4918E04FF41D0115E04FF46B012A
:1009700012E01A4910E04FF0EB710DE04FF06C718E
:100980000AE04FF0806107E04FF0E86104E04FF0CB
:10099000706101E04FF0805141630020704780B5E5
:1009A0000F4B1970012219461030FFF77DFC012012
:1009B00002BD00000811000000800240002000403D
:1009C00090D0030040420F0000B0130000502700F9
:1009D00000F03A0000A04E0000C0750000903A01FF
:1009E00034010020002141604FF47A71816070472A
:1009F0003F480168082904BF4168002906D13D49E4
:100A000000220A604A6000213B4A116001680829FF
:100A100004BF4168002923D1384A394913680B6063
:100A200053684B6093688B60D368CB6013690B612C
:100A300053694B6193690B62D3694B62136A8B6292
:100A4000536ACB62936A0B63D36A4B63136B0B6479
:100A5000536B4B64936B8B64D36BCB64126C0A65E2
:100A60000168082904BF4168002902D1254A2649A6
:100A700011600168082904BF4168002902D1234A96
:100A8000FB2111600168082904BF4168002909D1D0
:100A90001F49204B0A681B78120903F00F0343EA31
:100AA00002120A600168082904BF4168002903D1C5
:100AB000194A4FF4007111600168082904BF4068A9
:100AC000002806D115480168C90744BF6FF001012D
:100AD00001601348016841F470010160BFF34F8F5A
:100AE000BFF36F8F0F491048086070470000000087
:100AF000300100100C0100403805004004040010D3
:100B000020C500408C5600404881030018F5004085
:100B1000E40E0040580200104096024000040040DD
:100B200088ED00E0000000200090D00341EA42017F
:100B300041EA830210B50299202842EA012232BF1D
:100B40004FF0A04400F01F001D4C039904EB8000FF
:100B500042EA0141C0F8001710BD00B583B0002281
:100B6000019200920B46002106E000B583B00B46CF
:100B70000192002100220092FFF7D8FF07BD202834
:100B800032BF4FF0A04100F01F000D4901F20451A7
:100B900001230A6803FA00F020EA02034B601040C8
:100BA00088607047202832BF064900F01F000649C0
:100BB000096821FA00F202F001007047000000000D
:100BC000000300501005005010080050092900D9FA
:100BD000704700B583B0DFE801F00507090E101279
:100BE00014171A20002102E0032100E0012103B0C4
:100BF0005DF804EBB1E7032204E0032205E00322E1
:100C000006E00222002104E00222032101E0022288
:100C1000012103B05DF804EBA7E7002101910091E9
:100C2000012200231146FFF781FF07BD80B500E0D8
:100C3000A5E7FFF7B7FF00B10120C0B202BDFEE794
:100C40001B4213D1094236D12AB18446B0FBF2F0DF
:100C500002FB10C2704700F06BB8FCD300220023E7
:100C600070470B000200002100207047904271EB9A
:100C7000030CF6D370B5B1FA81F4B3FA83F52C1BEB
:100C8000A340C4F1200532FA05F63343A2405FF0D9
:100C90000046E64002E05B085FEA3202841A71EB2C
:100CA000030524BF204629467641F4D302000B00F9
:100CB0003000002170BD012ACFD970B5140C20D0AE
:100CC000B1FA81F4B2FA82F5C4F120046419B4F1E6
:100CD0002006D6D3B2405FF00044F440002502E085
:100CE00052085FEA3303C61A71EB020E24BF304686
:100CF000714664416D41F3D302000B0020002900CE
:100D000070BD0C46B1FBF2F102FB11452D0445EA22
:100D10001045B5FBF2F402FB145580B240EA0545DC
:100D2000B5FBF2F002FB105240EA044070BDFEE752
:100D30007047FEE780B53148FFF796FDBDE80840F3
:100D40002F4A304900F06CB880B54FF4E1312B48A0
:100D5000FFF7C8FDBDE8044009210D20FFF736BFAD
:100D600080B50D20FFF764FF0D20FFF75FFF014600
:100D70000A22224800F077F82348244A01682448D0
:100D800000BF00BF00BF00BF00BF00BF00BF00BF6B
:100D900091422FD000BF00BF00BF00BF00BF00BF07
:100DA00000BF00BF00BF00BF00BF00BF00BF00BF4B
:100DB00000BF00BF00BF00BF00BF00BF00BF00BF3B
:100DC00000BF00BF00BF00BF00BF00BF00BF00BF2B
:100DD00000BF00BF00BF00BF00BF00BF00BF00BF1B
:100DE00000BF00BF00BF00BF00BF00BF00BF00BF0B
:100DF00000BF00BF401EC3D101BD00006C00002039
:100E000030010020E3080000000000200024F4006E
:100E100020A1070080B5FFF797FFFFF7A1FFFCE7D0
:100E20000B460146184600F071B8FEE702681268EA
:100E3000104780B5009200230A4600F001F802BD79
:100E400080B50299C9B2009100F018F802BD38B51A
:100E500004460D21FFF7EAFF05460A212046FFF769
:100E6000E5FF401932BD38B50446FFF7E2FFFFE762
:100E700005462046FFF7EBFF401932BD2DE9F0454E
:100E80001F4616460024002F08BF002E91B0824650
:100E9000A0460FD13021FFF7C9FF012007E0C9B2FA
:100EA0005046FFF7C3FF8044641E15E0404611B072
:100EB000BDE8F085189D304639462A460023FFF7E5
:100EC000BFFEA5FB002300ABB21AE254641C0F0066
:100ED0000646F0D1002EEED1002CE7D000A8201855
:100EE00010F8010C0A28B4BF00F1300100F13701FD
:100EF000D5E7FEE738B504460D46AC4205D020687C
:100F000020188047241DAC42F9D131BDF8B5044604
:100F10000D461646C046C0461848016801B9184932
:100F2000184A91422EBF00270F460C310160C0467F
:100F3000C0460FB90120F2BD3D607C60BE6000205C
:100F4000F2BD0020F8B50D4C25682E0000D1F1BD92
:100F50000B4F0AE0064605460C3E7168080004D0B7
:100F600000207060306830B1884720688542F1D138
:100F7000BE42F1D1F1BD8847F7E700002C01002007
:100F800038010020C40200204FF0804181B00022CF
:100F9000425040580090009801B0704700F18040E6
:100FA000006800B10120C0B2704738B5040019488C
:100FB00014BF00F1100500F1080504E0086828607E
:100FC00020464968884729680029F7D131BD38B5DE
:100FD0004FF48070FFF7E2FF0E4C0F4D48B14FF415
:100FE0008070FFF7D1FF0120286060700020FFF7BC
:100FF000DCFF4FF48270FFF7D1FF50B14FF48270E5
:10100000FFF7C2FF022028600120A070BDE8324037
:10101000CBE731BD180100200803004010B5124A8B
:1010200002EB400302EB80029C888C439C80BDE86D
:101030001040126910470C4881880020EEE70A48EA
:10104000C1880120EAE7084801890220E6E706484E
:1010500041890320E2E7044881890420DEE7024851
:10106000C1890520DAE70000F000002019E050F8FF
:10107000041BCB0744BFA9F101035918121F002319
:10108000042A41F8043BF9D25FEA827C0B4604D57E
:101090004FF0000CA1F800C09B1CD10744BF0021F9
:1010A000197050F8042B002AE1D1704710B450F8A1
:1010B000041B79B10268436812180830DC0744BF8A
:1010C000A9F10104E31852F8044B43F8044B091F3B
:1010D000F9D1ECE710BC704710B5074979441831D5
:1010E000064C7C44163404E00A68081D51188847F1
:1010F0000146A142F8D110BD50000000740000006C
:1011000000000000000000009F0900000000000037
:1011100000000000000000000000000000000000CF
:10112000000000004EF68851CEF20001086840F43D
:1011300070000860BFF34F8FBFF36F8F4FF00070E8
:10114000E1EE100A7047000025FFFFFF34010000A8
:10115000040000200000000055FFFFFF0400000015
:10116000D400000000000020000000000900000082
:10117000FEE7000010B50446044979440E310448E6
:1011800078440C30FFF7B6FE204610BD6400000026
:101190005C0000000120C046002801D0FFF79CFF42
:1011A0000020C046C046FFF735FE00F000F800F012
:1011B00001B8FEE70746FFF7C4FE384600F002F824
:1011C000FBE7FEE72021090326311820ABBEF9E733
:1011D0000148804701480047F1090000E111000083
:1011E000C046C046FFF79EFFFFF7D4FF49FBFFFF55
:1011F000FEE7FEE7FEE7FEE7FEE7FEE7FEE7FEE7C7
:10120000FEE7FEE7FEE7FEE7FEE7FEE7FEE7FEE7B6
:10121000FEE7FEE7FEE7FEE7FEE7FEE7FEE7FEE7A6
:10122000FEE7FEE7FEE7FEE7FEE7FEE7FEE7FEE796
:08123000FEE7FEE70090D00389
:04000005000011E105
:00000001FF
