:10000000282100204D0E00004F0C0000110E0000B2
:10001000330E00003F0E0000690E000000000000DB
:100020000000000000000000000000006B0E000057
:100030006D0E0000000000006F0E0000710E000049
:10004000970C0000730E00005D060000750E0000A6
:10005000770E0000790E00005F0700007B0E0000A5
:100060007D0E00007F0E0000810E0000830E000058
:10007000850E0000870E0000890E00008B0E000028
:100080008D0E00008F0E0000910E0000930E0000F8
:10009000FF0C0000070D00000F0D0000170D000001
:1000A0001F0D0000270D0000950E0000970E0000A8
:1000B000990E00009B0E00000000000000000000F0
:1000C0009D0E00009F0E0000A10E0000A30E000078
:1000D000A50E0000A70E0000A90E0000AB0E000048
:1000E00063060000AD0E0000AF0E0000000000002F
:1000F00000000000B10E000000000000B30E000080
:1001000000000000000000000000000000000000EF
:1001100000000000000000000000000000000000DF
:1001200000000000000000000000000000000000CF
:1001300000000000000000000000000000000000BF
:1001400000000000000000000000000000000000AF
:10015000000000000000000000000000000000009F
:10016000000000000000000000000000000000008F
:10017000000000000000000000000000000000007F
:10018000000000000000000000000000000000006F
:10019000000000000000000000000000000000005F
:1001A000000000000000000000000000000000004F
:1001B000000000000000000000000000000000003F
:1001C000000000000000000000000000000000002F
:1001D000000000000000000000000000000000001F
:1001E000000000000000000000000000000000000F
:1001F00000000000000000000000000000000000FF
:1002000041EA420141EA830210B50299202842EAFC
:10021000012232BF4FF0A04400F01F00DFF84C4431
:10022000039904EB800042EA0141C0F8001710BDB9
:1002300000B583B0002101910091012200231146F5
:1002400006E000B583B00022019200920B46002127
:10025000FFF7D6FF07BD202832BFDFF8141400F0E7
:100260001F00DFF81014012202FA00F00860704746
:1002700081B000220A5008580090009801B07047E1
:10028000085800B10120C0B2704700F20C5001E0E4
:1002900000F5A1600160826070470128DFF8D81383
:1002A00002D101F1080070470846704738B50D4685
:1002B0000446286810F1010F04D0FFF7CCFF28682E
:1002C000FFF7B6FF686810F1010F1CBF0021FFF7B0
:1002D000B8FF2068AA6900F224510A606A7D2B7D6C
:1002E0001A438A6429686A68FFF7CFFF287DA8B996
:1002F000A86810F1010F1CBF0021FFF7A2FFE868FA
:1003000010F1010F04D0FFF7A6FFE868FFF790FF98
:10031000AA68E9682068BDE83840B9E731BD38B55A
:1003200004460D4620684FF48871FFF7A1FF20684E
:100330004FF49071FFF79CFF20684FF49271FFF724
:1003400097FF00F0CCF82068DFF83013C0F80413F2
:1003500000032946BDE83440001600F099B9F8B50D
:1003600000F023F800EB41161746F07E08B1082094
:10037000F2BD687F307729462046FFF797FF776008
:1003800028693060706818B1297F2046FFF7C7FFE1
:1003900021680820C1F800050020F0753076B0759E
:1003A0000120F0760020B076F2BD0D460446B44838
:1003B00021797047F8B500F0D4F84FF49071FFF749
:1003C00057FF20684FF4AC71FFF752FF2168A87DFA
:1003D000AB6801F24452002613605060012088602F
:1003E000686870B920684FF49071FFF749FF0746BD
:1003F00000F0B3F850EA0701F4D000B10F26002056
:10040000A8753046F2BDF8B5FFF7CFFF00EB4117F6
:1004100005F06040B0F1005F16460AD1204600F0BA
:100420000CF840B9BE75BD60B8822046BDE8F24008
:10043000C0E71020F2BD1120F2BD0079904901EB18
:100440004010807D00B1012070472DE9F041044645
:100450000E462068174698464FF48871FFF708FF4C
:1004600000F03DF8206800F2345100250E60B8F12C
:10047000000F4F6002D10121016005E0D0F80012A9
:1004800041F02001C0F8001221797D4E06EB4111A8
:100490004968E9B920684FF48871FFF7F1FE80469A
:1004A00020684FF4A271FFF7EBFE074620684FF477
:1004B0009271FFF7E5FE47EA08010143EAD021798E
:1004C00006EB4111CD7500B103252FB10F2503E0D7
:1004D0004FF40471C0F804132846BDE8F081206889
:1004E0004FF4A271C4E670B50479654B03EB441474
:1004F00001F06043B3F1005F13D1666800234FF44D
:1005000004751EB1066806F541767560E67D76B124
:10051000237E43B1616811B10068C0F80453112013
:1005200070BD102070BD01232161227603E0E275C9
:10053000E16063762376BDE8704086E700B585B05C
:10054000034601208DF808108DF80000019200A8E4
:1005500019685A68904705B000BD20684FF4AC7127
:100560008EE604464648217900EB41152068704725
:100570007FB50C464FF492710546FFF781FE05F2F8
:100580003C56C0B14FF4927100F066F802208DF82D
:100590000000D5F88004C5F88004039030688DF819
:1005A0000800E06801900020E0752076216862680C
:1005B00000A8904722E04FF488712846FFF760FEBC
:1005C000E0B14FF4887100F047F83168E07DC9B2BE
:1005D000814213D1E268207E60B1D5F8000220F09C
:1005E0002000C5F80002207EE0752069E060002050
:1005F000207600E0E0752046FFF7A0FF4FF4A271DF
:100600002846FFF73DFE68B14FF4A27100F024F8D0
:10061000E07D38B10020E07520463168E268C9B25B
:10062000FFF78CFF4FF490712846FFF729FE90B139
:100630004FF4907100F010F8A07D60B130698DF832
:10064000080000218DF80010A0680190A17500A895
:100650002168626890477FBD284609E60849094835
:1006600086E70949094883E70000000000030050BD
:100670000805005008080050240000201003020064
:10068000A000002000200040C000002000800240A8
:1006900010B54901020006D50A4B00F00F04E3181B
:1006A00003F8041C01E0084C01554109012200F047
:1006B0001F0002FA00F0054A42F82100044A42F8FD
:1006C000210010BD18ED00E000E400E080E200E051
:1006D00000E100E0DFF81C120858012818BF0020D4
:1006E000704700F1804000F5C040002181B00160FA
:1006F00000680090009801B07047202832BFDFF8F2
:10070000FC2100F01F00DFF8F82152F8203023F41C
:10071000403342F8203052F8203043EA01411BE0D8
:100720007CB50FF2EC1460CC00AB60C3034607E06D
:1007300000AC54F82340D4F8104542F8044B5B1C3D
:100740000C18A342F4D373BD012200F00703C008C4
:100750009A40405C1040704742F8201070472DE9E5
:10076000F04F89B002A800210A4606C000264FF4C7
:100770008079012708250FFA89F0FFF7ABFF0028E1
:100780001EBF61480068384204D00FFA89F0FFF7B5
:10079000A8FF3E437F006D1E09F10409EBD14FF421
:1007A000BE70FFF797FF50B14FF4BE70FFF799FF8F
:1007B00002AA02210020FFF7B3FF46F000463006F0
:1007C000DFF8409115D00127504C37420DD054F836
:1007D000250054F8251059F82520130005D0090CE0
:1007E00001F00301C0F3052090477F006D1C082D28
:1007F000EBD3002E7BD506A80021002206C04FF0C7
:10080000FF300090019006AE06E0049A029241602B
:10081000069A7068009201900027002505EB0900F8
:1008200090F96000C4B210F1010F24F0C0084BD061
:1008300000A94046FFF788FF002845D0A00900F036
:10084000030408EB090090F9300059F820A0BAF130
:10085000000F02D1032C37D101E0032C08D14FEA5D
:10086000D8000122815D08F007039A4011438155A9
:100870004046202832BF4FF0A04100F01F001E4923
:1008800001EB800002A9D0F80007000C00F0030B78
:100890004046FFF759FF18B1BBF1020F14D102E037
:1008A000BBF1030F10D1032C08D1BBF1020F0CBF19
:1008B000032102214046FFF720FF7F1CBAF1000F01
:1008C00002D021464046D0476D1C042DA6D3FFB26E
:1008D0006FB104AA02210020FFF722FF049A029BB5
:1008E000059902A89A4204BF426891428DD109B08D
:1008F000BDE8F08F0060004000030050000700508A
:10090000000A0050380000200463004010650040D9
:1009100000000050000300503F480168082904BF50
:100920004168002906D13D4900220A604A60002141
:100930003B4A11600168082904BF4168002923D19E
:10094000384A394913680B6053684B6093688B6071
:10095000D368CB6013690B6153694B6193690B6278
:10096000D3694B62136A8B62536ACB62936A0B63DF
:10097000D36A4B63136B0B64536B4B64936B8B6445
:10098000D36BCB64126C0A650168082904BF416807
:10099000002902D1254A264911600168082904BFAF
:1009A0004168002902D1234AFB211160016808290E
:1009B00004BF4168002909D11F49204B0A681B78F0
:1009C000120903F00F0343EA02120A6001680829C2
:1009D00004BF4168002903D1194A4FF40071116026
:1009E0000168082904BF4068002806D1154801683D
:1009F000C90744BF6FF0010101601348016841F469
:100A000070010160BFF34F8FBFF36F8F0F49104824
:100A10000860704700000000300100100C01004029
:100A2000380500400404001020C500408C560040EA
:100A30004881030018F50040E40E00405802001001
:100A4000409602400004004088ED00E034000020A1
:100A50000090D003704738B509210D2000F0C6F88A
:100A60003A4C3B4D4FF0EB70A0610620206008200F
:100A700060600020FFF711FC2146D0E90023C5E9A2
:100A800000232846334AFFF76AFC6068FF280AD033
:100A9000607F10B92846C046C046012204F12001FB
:100AA0002846FFF720FD0020287231BD10B50D202B
:100AB00000F0CCF82848294A01682948244C00BF96
:100AC00000BF00BF00BF00BF00BF00BF00BF91421A
:100AD0002FD000BF00BF00BF00BF00BF00BF00BFDE
:100AE00000BF00BF00BF00BF00BF00BF00BF00BF0E
:100AF00000BF00BF00BF00BF00BF00BF00BF00BFFE
:100B000000BF00BF00BF00BF00BF00BF00BF00BFED
:100B100000BF00BF00BF00BF00BF00BF00BF00BFDD
:100B200000BF00BF00BF00BF00BF00BF00BF00BFCD
:100B300000BF401EC3D1012204F108012046FFF787
:100B400062FC207A401C207210BD000000000020D2
:100B50001C010020550A0000340000200024F4008D
:100B6000400D030080B5FFF776FFFFF79FFFFCE71E
:100B700041EA420141EA830210B50299202842EA83
:100B8000012232BF4FF0A04400F01F00164C039921
:100B900004EB800042EA0141C0F8001710BD00B527
:100BA00083B00022019200920B46002106E000B5BE
:100BB00083B00B460192002100220092FFF7D8FF7C
:100BC00007BD202832BF4FF0A04100F01F000649AA
:100BD00001F2045101230A6803FA00F020EA02033B
:100BE0004B6010408860704700030050092900D90D
:100BF000704700B583B0DFE801F00507090E101259
:100C000014171A20002102E0032100E0012103B0A3
:100C10005DF804EBC3E7032204E0032205E00322AE
:100C200006E00222002104E00222032101E0022268
:100C3000012103B05DF804EBB9E7002101910091B7
:100C4000012200231146FFF793FF07BDB9E7FEE736
:100C50004FF0804181B000224250405800900098EF
:100C600001B0704700F18040006800B10120C0B2BF
:100C7000704738B50400194814BF00F1100500F1A1
:100C8000080504E008682860204649688847296804
:100C90000029F7D131BD38B54FF48070FFF7E2FF7E
:100CA0000E4C0F4D48B14FF48070FFF7D1FF01207B
:100CB000286060700020FFF7DCFF4FF48270FFF7C0
:100CC000D1FF50B14FF48270FFF7C2FF02202860BD
:100CD0000120A070BDE83240CBE731BD0801002003
:100CE0000803004010B5124A02EB400302EB8002F9
:100CF0009C888C439C80BDE81040126910470C48CA
:100D000081880020EEE70A48C1880120EAE7084808
:100D100001890220E6E7064841890320E2E704480A
:100D200081890420DEE70248C1890520DAE7000056
:100D3000E000002019E050F8041BCB0744BFA9F1E4
:100D400001035918121F0023042A41F8043BF9D269
:100D50005FEA827C0B4604D54FF0000CA1F800C07E
:100D60009B1CD10744BF0021197050F8042B002AA6
:100D7000E1D1704710B450F8041B79B102684368A0
:100D800012180830DC0744BFA9F10104E31852F837
:100D9000044B43F8044B091FF9D1ECE710BC704732
:100DA00010B5074979441831064C7C44163404E0E8
:100DB0000A68081D511888470146A142F8D110BDA4
:100DC0002C0000004C0000004EF68851CEF20001CD
:100DD000086840F470000860BFF34F8FBFF36F8F57
:100DE0004FF00070E1EE100A7047000049FFFFFF6E
:100DF000F0000000380000200000000079FFFFFF35
:100E000038000000B00000000000002000000000DA
:100E1000FEE700000120C046002801D0FFF7C0FF18
:100E20000020C046C046FFF79DFE00F000F800F02D
:100E300001B8FEE70746384600F002F8FBE7FEE798
:100E40002021090326311820ABBEF9E7014880476D
:100E500001480047190900005D0E0000C046C04669
:100E6000FFF7B2FFFFF7D6FFFEE7FEE7FEE7FEE77C
:100E7000FEE7FEE7FEE7FEE7FEE7FEE7FEE7FEE74A
:100E8000FEE7FEE7FEE7FEE7FEE7FEE7FEE7FEE73A
:100E9000FEE7FEE7FEE7FEE7FEE7FEE7FEE7FEE72A
:100EA000FEE7FEE7FEE7FEE7FEE7FEE7FEE7FEE71A
:100EB000FEE7FEE7FFFFFFFFFFFFFFFFFFFFFFFF74
:100EC000FFFFFFFF00000000000000000000D6014F
:100ED00007010000000000000020004000000000AA
:0C0EE00000800240010000000090D003E0
:0400000500000E5D8C
:00000001FF
