:100000000808002025060000E90500000B06000096
:100010001706000041060000430600000000000033
:100020000000000000000000000000004506000085
:100030004706000000000000490600004B060000D3
:100040004D0600004F060000510600005306000058
:100050005506000057060000590600005B06000028
:100060005D0600005F0600006106000063060000F8
:100070006506000067060000690600006B060000C8
:100080006D0600006F060000710600007306000098
:100090007506000077060000790600007B06000068
:1000A0007D0600007F060000810600008306000038
:1000B0008506000087060000000000000000000028
:1000C000890600008B0600008D0600008F060000E8
:1000D00091060000930600009506000097060000B8
:1000E000990600009B0600009D060000000000002D
:1000F000000000009F06000000000000A1060000B4
:1001000000000000000000000000000000000000EF
:1001100000000000000000000000000000000000DF
:1001200000000000000000000000000000000000CF
:1001300000000000000000000000000000000000BF
:1001400000000000000000000000000000000000AF
:10015000000000000000000000000000000000009F
:10016000000000000000000000000000000000008F
:10017000000000000000000000000000000000007F
:10018000000000000000000000000000000000006F
:10019000000000000000000000000000000000005F
:1001A000000000000000000000000000000000004F
:1001B000000000000000000000000000000000003F
:1001C000000000000000000000000000000000002F
:1001D000000000000000000000000000000000001F
:1001E000000000000000000000000000000000000F
:1001F00000000000000000000000000000000000FF
:1002000041EA420141EA830210B50299202842EAFC
:10021000012232BF4FF0A04400F01F005F4C039951
:1002200004EB800042EA0141C0F8001710BD00B5A0
:1002300083B000210191009101220023114606E0C4
:1002400000B583B00022019200920B460021FFF717
:10025000D7FF07BD10B5524A524B012449B9202897
:1002600032BF191D00F01F00111D04FA00F00860D4
:1002700010BD202834BF1A4600F01F0004FA00F019
:10028000106010BD202832BF474900F01F004749C9
:10029000096821FA00F202F00100704780B50321DD
:1002A0000B20FFF7CDFF03210C20FFF7C9FF03212F
:1002B0001820FFF7C5FF03211920FFF7C1FF0D200C
:1002C000FFF7B5FF0E20FFF7B2FF0F20FFF7AFFFDC
:1002D0001020FFF7ACFF00F001F8FCE780B50B2021
:1002E000FFF7D0FF01460D20FFF7B4FF0C20FFF70A
:1002F000C9FF01460E20FFF7ADFF1820FFF7C2FF30
:1003000001460F20FFF7A6FF1920FFF7BBFF0146AC
:100310001020FFF79FFF2648264A01684FF47A70A5
:1003200000BF00BF00BF00BF00BF00BF00BF00BFD5
:1003300091422FD000BF00BF00BF00BF00BF00BF71
:1003400000BF00BF00BF00BF00BF00BF00BF00BFB5
:1003500000BF00BF00BF00BF00BF00BF00BF00BFA5
:1003600000BF00BF00BF00BF00BF00BF00BF00BF95
:1003700000BF00BF00BF00BF00BF00BF00BF00BF85
:1003800000BF00BF00BF00BF00BF00BF00BF00BF75
:1003900000BF00BF401EC3D101BD000000030050DC
:1003A00008080050080500501005005010080050C3
:1003B000000000200024F40080B5FFF76FFFFEE787
:1003C00010B555480168082904BF4168002906D1C5
:1003D000524900220A604A600021514A11600168B6
:1003E000082904BF4168002923D14E4A4E491368A9
:1003F0000B6053684B6093688B60D368CB60136964
:100400000B6153694B6193690B62D3694B62136A49
:100410008B62536ACB62936A0B63D36A4B63136B31
:100420000B64536B4B64936B8B64D36BCB64126C18
:100430000A650168082904BF4168002902D13B4AC6
:100440003B4911600168082904BF4168002902D1B5
:10045000384AFB2111600168082904BF416800295E
:1004600009D13549354B0A681B78120903F00F038F
:1004700043EA02120A600168082904BF41680029A2
:1004800003D12F4A4FF4007111600168082904BF9D
:100490004068002806D12B480168C90744BF6FF0A7
:1004A000010101602848C16F41F47001C167BFF3C9
:1004B0004F8FBFF36F8F25490A68002A5CBF4A68D7
:1004C000002A21D5224A01231360224B1C68002CEC
:1004D000FCD012240C601C68002CFCD012244C6050
:1004E00019680029FCD00021116019680029FCD08E
:1004F000BFF34F8F0168184A01F4E06111430160B6
:10050000BFF34F8F00BFFDE701490248086010BDEF
:10051000000000200090D003300100100C010040CA
:10052000380500400404001020C500408C560040EF
:100530004881030018F50040E40E00405802001006
:1005400040960240000400400CED00E00012001054
:1005500004E5014000E401400400FA0510B450F83D
:10056000041B79B10268436812180830DC0744BFE5
:10057000A9F10104E31852F8044B43F8044B091F96
:10058000F9D1ECE710BC704710B507497944183130
:10059000064C7C44163404E00A68081D511888474C
:1005A0000146A142F8D110BD2C0000003C00000023
:1005B0004EF68851CEF20001086840F470000860E1
:1005C000BFF34F8FBFF36F8F4FF00070E1EE100A53
:1005D0007047000089FFFFFF04000000C800000012
:1005E0000000002000000000FEE700000120C046DF
:1005F000002801D0FFF7C8FF0020C046C046FFF723
:10060000DBFE00F000F800F001B8FEE707463846D0
:1006100000F002F8FBE7FEE720210903263118204D
:10062000ABBEF9E70148804701480047C10300001D
:1006300035060000C046C046FFF7BAFFFFF7D6FFF9
:10064000FEE7FEE7FEE7FEE7FEE7FEE7FEE7FEE782
:10065000FEE7FEE7FEE7FEE7FEE7FEE7FEE7FEE772
:10066000FEE7FEE7FEE7FEE7FEE7FEE7FEE7FEE762
:10067000FEE7FEE7FEE7FEE7FEE7FEE7FEE7FEE752
:10068000FEE7FEE7FEE7FEE7FEE7FEE7FEE7FEE742
:10069000FEE7FEE7FEE7FEE7FEE7FEE7FEE7FEE732
:0806A000FEE700000090D0030A
:0400000500000635BC
:00000001FF
